{
  "contractName": "faucet",
  "abi": [
    {
      "constant": true,
      "inputs": [],
      "name": "num",
      "outputs": [
        {
          "internalType": "int256",
          "name": "",
          "type": "int256"
        }
      ],
      "payable": false,
      "stateMutability": "view",
      "type": "function"
    },
    {
      "constant": true,
      "inputs": [],
      "name": "number",
      "outputs": [
        {
          "internalType": "uint256",
          "name": "",
          "type": "uint256"
        }
      ],
      "payable": false,
      "stateMutability": "view",
      "type": "function"
    }
  ],
  "bytecode": "0x60806040526022600055608419600155348015601a57600080fd5b506096806100296000396000f3fe6080604052348015600f57600080fd5b506004361060325760003560e01c80634e70b1dc1460375780638381f58a14604f575b600080fd5b603d6055565b60408051918252519081900360200190f35b603d605b565b60015481565b6000548156fea265627a7a723158205027b60283b8dda732581793ecdfa56cc55248e4a54336b7cb931b2ccc0a8c8864736f6c63430005100032",
  "source": "pragma solidity >=0.4.22 <0.9.0;\r\n\r\ncontract faucet{\r\n\r\n    uint public number = 34;\r\n    int public num = -133;\r\n\r\n}",
  "sourcePath": "D:\\chain\\contracts\\contract.sol",
  "compiler": {
    "name": "solc",
    "version": "0.5.16+commit.9c3226ce.Emscripten.clang"
  },
  "schemaVersion": "3.4.16",
  "updatedAt": "2023-12-29T16:25:43.216Z",
  "networkType": "ethereum",
  "devdoc": {
    "methods": {}
  },
  "userdoc": {
    "methods": {}
  }
}